:10227B0090034CE02401FFE433FE7C007D1E120929
:10228B004AEDF02290034DE075F007A4247AF58215
:10229B00E43402F58322E5822FF582E43583F5835E
:0B22AB0022122967C2FD122967EF22F2
:0C290C00E490034CF0A3F0900279F0225C
:101C70009003C5EFF0A3EBF0A3EAF0A3E9F0900323
:101C80004DE0C3941E4002E4F0900279E0C3941E3C
:101C900040109003C5E02410F012227B900279746A
:101CA0001DF09003C5E0FF12228FEFF090035274F5
:101CB00001F0900352E0FF24FFFDE434FFFC9003A9
:101CC000C6E0FBA3E0FAA3E0F98D828C831208D76B
:101CD000FE12228F1222A1EEF0900352E004F0E0F7
:101CE000B407CF900279E004F090034D12227E22D7
:1019A800900279E07003021A3D90034CE0C3941E44
:1019B8004002E4F01228F090034E74FFF0E4FD7F3B
:1019C800081228D290034EE0F4706A900279E0FF82
:1019D800C3940490034F5004EFF080037404F0E4C0
:1019E800900350F090034FE0FFA3E0C39F5043E4FF
:1019F800A3F0900351E0FFC39407502590034E7461
:101A0800FFF090034C1222921222A1E0FF12224012
:101A180090034EE0F460028019900351E004F080D6
:101A2800D112227B900279E014F0900350E004F088
:061A380080B21228B22268
:0C291800900279E060051219A880F522F9
:0D28F000E4FF0000000000000FEFB4C8F589
:0128FD0022B8
:0929670000000000000000002245
:1025C600E4900354F0A3F0D2FD20FD1F900355E0E4
:1025D60004F07006900354E004F0900354E0700297
:0C25E600A3E070E590034EE05402F022E8
:0F28D200D2FD122967C2FC1222AC2DFF02224058
:10224000E4900353F0EF30E704D2FC8002C2FC12AA
:1022500025C61222AC25E0FF900353E004F0E0C352
:10226000940840E1D2FC1225C612296730FC079081
:0B227000034EE05401F0C2FD0229679C
:1028B200C2FC1229671225C6122967D2FC022967B7
:100096004101FE004101FF00460200000000000091
:1000A60000410206014A026100000300000000034D
:1000B600010044026B0000000044026F00000000D3
:0F00C600420273070842027500004202770101EF
:100CD500820392039003A0E075F009A4FFAEF0A390
:100CE500E0FBA3E0FAA3E0229000012FF9EA3EFA27
:100CF5000208D79000032FF9EA3EFA0208D79000C0
:100D0500042FF9EA3EFA0208D7E075F009A4240792
:100D1500F9740235F0FA7B017D017E007F09020836
:100D2500989003A0E0246BF582E43402F583E02279
:100D3500E0FF2473F582E43402F58322E02461F5B3
:100D450082E43402F583E022A3F0E4A3F07403A364
:100D5500F0E4A3F0A3229000062FF9EA3EFA020878
:100D6500D7F91208BE246FF582E43402F583E02238
:100D7500A3F0A314F0A304F0A304F0E4A3F022A3CA
:100D8500F0A314F07408A3F0A37401F02282039277
:100D9500039003A0E004F0E0229000072FF9EA3E5B
:100DA500FA0208D7F0E4A3F0A3F0A3F022F07475DB
:100DB5002DF582E43402F583229003A07401F0221C
:100DC500FDE0FBA3E09003B1F022F074772EF582ED
:100DD500E43402F58322A3F0A37401F0A322EBF01F
:100DE500A3EAF0A3E9F022E0FE74FC2FF582E434D7
:100DF50001F58322FD9003B37401F0A322FE74EE86
:100E05002FF582E43401F58322FE74F82FF582E490
:100E15003401F58322FE5401F0EE5402C31322E09F
:100E2500FF75F009A4227D017B017E00020898F977
:050E35007463020904D2
:1028C2001212B71222F0E49003FAF0A3740CF02271
:10139C00E490039CF09001FEE014603714604F144D
:1013AC007003021435240360030214469003FAE020
:1013BC00B4FF08A3E0B4FF0302143E1205E4500589
:1013CC001224DA40057D010214489001FE7401F0EC
:1013DC00021450121551400F9001FFE004F0D39409
:1013EC000540617D028055E49001FFF080441209B4
:0313FC009F502FD0
:1013FF009003F2E090039D120E1AFFA3F09003F2F8
:10140F00E054FC1313543FFE90039FF090039DE0B4
:0F141F00FD2477120DD3EF120DB2EEF012236001
:10142E00E49001FEF0801B120B4840047D03800AFD
:10143E009001FE7402F0800A7D04E4FF1224A712CC
:10144E002930900206E0C394024006E4FDFF122408
:10145E00A79001FFE033333354F8FF9001FEE05FB5
:0A146E0090039CF0FD7F0102253E73
:100B4800120DBED203A3F0A37402F07407120D8B2A
:100B5800A37401F0A37494F0120DBE9003A1120CBB
:100B6800E5F99003A0120E24F58285F0831208D7C8
:100B7800FE9003A4120CE5F975F009EFA4F582853F
:100B8800F0831208D76E7003D38001C3120CD512FC
:100B98000CEDFD9003A4120CE5120CED6D7003D35F
:100BA8008001C3120CD5900002120CF0FD9003A432
:100BB800120CE5900002120CFB6D7003D38001C388
:100BC800120CD5120CF8FD9003A4120CE5120CF8C7
:100BD8006D7003D38001C3120CD5120D03FD900371
:100BE800A4120CE5120D036D7003D38001C3120C1F
:100BF800D5900005120D06FD9003A4120CE5900097
:100C080005120D5E6D7003D38001C3120CD5120D51
:100C18005BFD9003A4120CE5120D5B6D7003D3808D
:100C280001C3120CD5120D9EFD9003A4120CE512FF
:100C38000D9E6D7003D38001C3120CD5900008126D
:100C48000DA1FD9003A4120CE52FF9EA3EFA9000DD
:100C5800081208D76D7003D38001C3820392032062
:100C68000302C322120D9664096003020B63120D7E
:100C7800BE9003A0E0FF120D42120E02E06E700358
:100C8800D38001C3120D92B409E7200302C32212D4
:100C98000DBE9003A0E0FF120D2A120E0EE06E703A
:100CA80003D38001C3120D92B403E7200302C322C9
:100CB800120DBE9003A0120D35120DECE06E7003FC
:0C0CC800D38001C3120D92B402E9A20314
:010CD40022FD
:1005E4009003FCE060057D080206929003FAE0B4F3
:1005F400FF07A3E0B4FF02D3227F01E49003A0F03D
:100604009003A0E0FEC3940850419003FAE05F60B9
:10061400047D0180027D0074A12EF582E43403F58B
:1006240083EDF09003FBE05F60047E0180027E00B6
:100634009003A0E024A9F582E43403F583EEF0EFFF
:1006440025E0FF9003A0E004F080B59003A07401BE
:0E065400F09003A0E0FFD3941040030207C60D
:1006620074A02FF582E43403F583E070030207BD22
:100672009003A0E0FF9003BC7401F0A37403F0A305
:1006820074B6F07B017A0379B5120E3A40097D09FE
:100692007F011224A7C3229003A0E0FF9003BC7441
:1006A20001F0A37403F074B2120DDB7403F074B39F
:1006B200120DDB7403F0A374B4F07B017A0379B1F9
:1006C2001211C84001229003B6E0B401047F0180F8
:1006D200027FFF9003B1E06005120D422FF09003FC
:1006E200B2E06006120D42C39FF09003B3E06005D2
:1006F200120D2A2FF09003B4E06006120D2AC39F58
:10070200F09003B1E07033A3120E242408F582E4C2
:100712003402F583E09003B1F0EF75F009A42409E7
:10072200F582E43402F583E0FF600F9003B3E01238
:100732000D6AB401059003B1EFF09003B2E0703599
:100742009003B1120E24240AF582E43402F583E008
:100752009003B2F0EF75F009A4240BF582E43402A1
:10076200F583E0FF600F9003B4E0120D6AB4010557
:100772009003B2EFF09003B5120D35E0FE9003B78F
:10078200F09003B2E0FDEE6D70169003B6E0B40196
:100792000F9003B1E0FE74732F120D39EEF0801B3F
:1007A2009003B1E0FF9003B7E06F700F9003B6E0E3
:0B07B20070099003B5E0120D37EDF068
:0A07BD009003A0E004F0020655D3FB
:0107C700220F
:1024DA009003FAE0B4FF07A3E0B4FF02D32290030B
:1024EA00F6E0B4FF05A3E0F460097D0A7F02122436
:1024FA00A7C32278F67C037A0379FA7F03120E2B9C
:02250A00D322DA
:10099F00E49003A0F0A3F09003F4E0FFB4FF1090F5
:1009AF0003F3E0B4FF099003F2E0B4FF02C322EFB8
:1009BF00F460169003F4E054FEC3139003A1F0D338
:1009CF00940240057D10020B3F9003F3E0FFF460AB
:1009DF0013EF54FEC3139003A0F0D3940340057D8F
:0E09EF0011020B3F9003F4E0F47003020A9330
:1009FD00C203900275E09003A2F0900276E090039E
:100A0D00A3F0900273E09003A4F0900274E09003C1
:100A1D00A5F09003A1E024FE603404705F9003A460
:100A2D00E0FF64026004EFB4030A9003A2E06401E6
:100A3D006002D2039003A5E0FF64026005EF64033A
:100A4D00703A9003A3E064016032D203802E9003CC
:100A5D00A4E0FF64086004EFB4090A9003A2E06407
:100A6D00016002D2039003A5E0FF64086004EFB4B7
:100A7D00090A9003A3E064016002D2033003057DEF
:060A8D0012020B3FD32210
:080A93009003F3E0FFF4602D75
:100A9B00EF54019003A2F0120D2660057D13020B9B
:100AAB003F9003A0E0FF121F4D5012120D26FF9036
:0D0ABB0003A2E0FEEF6E60057D14020B3F0C
:080AC8009003F2E0FDF46076FA
:100AD000E09003A2120E1AA3F0FEED54FC1313547F
:100AE0003FA3F09003A2E0120D37E0FF9003A5F0C2
:100AF000CDEECD120DFA7403F0A374A7F07B017A4A
:100B00000379A61216289003A6120D41600C9003DB
:100B1000A4E0640260047D1580259003A7E06009CD
:100B2000120D2A60047D1680169003A5E0FF900345
:100B3000A3E09003A6120DC5121A3E50097D177F3F
:060B4000031224A7C322EA
:010B4600D3DB
:010B4700228B
:102360009003F4E0B4FF0E9003F3E0B4FF07900392
:10237000F2E0F4602178FD7C037A0379F27F0412A5
:102380000E2B9003F474FFF09003F3F09003F2F03F
:072390009003F97401F02233
:1022F000E4FF0F74612F120D44120E02EEF00FEF87
:10230000B409F07F01746B2F120D2C120E0EEEF03B
:102310000FEFB403F07F0174732F120D39120DEC1F
:07232000EEF00FEFB402F034
:012327002293
:1012B7009002107401F0A304F07407120D84A37454
:1012C70003120DDC7409F0A37402120D7C120D7D5C
:1012D700A3F0A304F07403120D757402120D547475
:1012E70002F0E4A3F07404120D75A37407120D51F4
:1012F7007402F0A37406F0A314F0A3120D7CA37478
:1013070004120DA9A37407F0A314F0120D8BE4A324
:10131700F07405120D4D7408F0A314F0A3F0A37434
:1013270004F0E4A3120D7CA37402F0A314F0740B71
:10133700120D84E4A3F07409120D4D740CF0A3048C
:10134700F0A37409F0A314120DA9A3F0A3F0A374DA
:101357000DF0A304F090039C7401F090039CE0FF50
:10136700C39409502FEF75F009A4FFAEF02407F9D5
:1013770074023EFA7B01E9C0E074942FF974013ED0
:10138700C8E9C8FC7D01D0E0F9120D1F90039CE06D
:0413970004F080C717
:01139B00222F
:060E3A009003B9120DE364
:100E4000900273E0FEA3E09003BF120DA9EF14B46B
:100E50000E004003020F1B900E6575F003A4C583BE
:100E600025F0C58373020E8F020E96020E9D020EB0
:100E7000A4020EAB020EBA020EC1020ECB020ED6B7
:100E8000020EE3020EEE020EF9020F04020F1290A0
:100E900003C07401801A9003C0740180299003C0BC
:100EA000740280229003C07403801B9003C07403FB
:100EB000F0A304F0A37407F0806A9003C074048068
:100EC000059003C07405F0A30480419003C074062C
:100ED000F0A3740180369003C07406120DDC740810
:100EE000F080419003C07401F0A37407801E90034A
:100EF000C07407F0A3740480139003C07408F0A3B7
:100F0000740180089003C07409F0A314F0E4A3F006
:100F100080129003C07409F0E48005E49003C0F0EF
:100F2000A3F0A3F09003C0E0FF6E600BA3E0FD6EA2
:100F30006005A3E06E701A9003B9120CE5F9E41293
:100F40000904900277E0FE9003BC120CE5F9EE80F4
:100F50002E9003BFE0FE6F600DEE6D60099003C23E
:100F6000E0FFEE6F701E9003B9120CE5F9740112E8
:100F70000904900278E0FF9003BC120CE5F9EF122F
:100F80000904D3229003B9120CE5120E349003BC6D
:070F9000120CE5120E34C340
:010F97002237
:0611C8009003B9120DE3D3
:1011CE00E41209049003BC120CE5F9E41209049030
:1011DE0003BF120CE5F9E41209049003C2120CE5E8
:1011EE00F9E41209047E01EE75F009A4240EF582CD
:1011FE00E43402F583E06F700B9003BC120CE5F93A
:10120E00EE120904EE75F009A4240FF582E43402FF
:10121E00F583E06F700B9003B9120CE5F9EE12092D
:10122E00040EEEB409C19003B9120CE5F91208BE12
:10123E0070159003BC120CE5F91208BE70097D0BF7
:10124E007F041224A7C3229003B9120CE5F91208E9
:10125E00BE70249003BC120CE5F91208BE75F0099D
:10126E00A4240CF582E43402F583E0FF9003BF1250
:10127E000CE5F9EF1209049003BC120CE5F9120803
:10128E00BE70249003B9120CE5F91208BE75F00970
:10129E00A4240DF582E43402F583E0FF9003C2121C
:0812AE000CE5F9EF120904D36D
:0112B6002215
:10155100C203E49003A0F09003A0E0FEC394024014
:04156100030215EF7D
:10156500E0FD120D37E0FF9003A1120DB2E09003EC
:10157500A2120DCFE0FE9003A3F0120DF97403F053
:10158500A374A5F07B017A0379A41216289003A20F
:10159500E0D39402400C9003A4120D4160047D2019
:1015A50080239003A1E0FFC374019FFFE49400FE34
:1015B50074732FF58274023EF583E0FF9003A4E077
:1015C5006F70077D2112162080209003A1E0FF9007
:1015D50003A3E0A3120DC5121A3E50057D22121673
:0115E50020E5
:1015E6009003A0E004F00215589003A07401F09057
:1015F60003A0E0FFC39409501E74612F120D44D35B
:101606009404400B7D237F051224A7D20380089003
:0916160003A0E004F080D8A20357
:09161F00227F051224A7D2032248
:0B1A3E009003AEEFF0A3EDF0A3EBF07F
:101A4900A3E0120D6A9003C4F09003AE78B27C0350
:101A5900120D0E9003B078BB7C03120D0E9003B1EA
:101A6900E07002D3229003AFE0FF6401702B900372
:101A7900B4E070259003BEE0FE9003AEE0FD6E7009
:101A8900099003C4E0B40102C3229003BFE06D7062
:101A9900369003C4E07030C322EF702B9003B6E098
:101AA90070259003BCE0FF9003AEE0FE6F700990D3
:101AB90003C4E0B40102C3229003BDE06E70089034
:081AC90003C4E07002C322D344
:011AD10022F2
:051F4D009003A8EFF075
:0D1F5200E4A3F09003A9E0FFC39402505DEA
:101F5F00E0FE120D37E09003AC120DCFE09003AD11
:101F6F00F074752F120DB6E0603A9003ACE0FFA34A
:101F7F00E0120DF97403F0A374ABF07B017A0379CF
:101F8F00AA1216289003ACE0FFA3E0FD9003AA125B
:101F9F000DC6121A3E500D9003A8E0FF9003ABE060
:041FAF006F7001222C
:0A1FB3009003A9E004F0021F55C3DB
:011FBD002201
:091628009003AFEDF0A3120DE3F5
:10163100EF75F009A42407F9740235F0FA7B0178FB
:10164100B67C03120D1D9003AFE0FF6401703E9064
:1016510003B7E0FE9003B0120CE5F9EE1209049015
:1016610003BBE0FE9003B3120CE5F9EE12090490FE
:1016710003B8E0FE606C9003B3120CE5120D6664D2
:1016810001705F9003B0120CE5F9EE8052EF703DEE
:101691009003B9E0FF9003B0120CE5F9EF120904D1
:1016A1009003BCE0FF9003B3120CE5F9EF120904BB
:1016B1009003BAE0FF602B9003B3120CE5120D66A4
:1016C100B4011F9003B0120CE5F9EF80129003B042
:1016D100120CE5120E349003B3120CE5F974631287
:0216E1000904FA
:0116E30022E4
:1024A700900200EFF0A3EDF09001FEE0900202F041
:1024B7009001FFE0900203F0900273E0900204F0B5
:1024C700900274E0900205F07B017A0279007F01A7
:0324D700021C7074
:1000D5004403F2FFFFFF004403FDFFFFFF0044045C
:1000E50001FFFFFF00440405FFFFFF00440409FF73
:1000F500FFFF0044040DFFFFFF004303F6FFFF0071
:100105004303FAFFFF004103F9FF410411FF4104D6
:0201150012FFD7
:08000300D2AF122405022132E4
:102405001229701225F212290C122947122765127A
:1024150029471227F5122947122852122947122750
:10242500C11229471228C2122947121858122947E2
:062435001200920229478B
:1021320012038E122947120F9812294712282512CC
:10214200294712288D12294712139C122947121966
:10215200A8122947120F9812294712288D122947CF
:10216200120F98122947121DE912294712288D12BF
:0A21720029471219A812294780B668
:10011700440413FFFFFF00440417FFFFFF004104DF
:100127001B0041041C0041041D0044041EFFFFFF87
:0C01370000440422FFFFFF00C100C101D2
:101BEE0090039FE0F9A3E0FAA3E09003A5C9F0A348
:101BFE00EAF0A3E9F090039CE0FBA3E0FAA3E0F97E
:101C0E002290041EE0FBA3E09003ABF0900420E0D2
:101C1E009003ACF0227A04791E7D017B017E007F59
:101C2E000402089874FFF0A3F0A3F0E4A3F0A374E9
:101C3E00FFF0A3F0A3F0E4A3F022E0FBE49003ABEB
:101C4E00F0A3F022F0A3F0A3F0A3229003ABF0E4F4
:101C5E00A3F0FB7D03229000010208D79000020240
:021C6E0008D795
:1027C100E490041B121C52121C32A3121C52F0A3DF
:0A27D100F0A3F0900413121C322252
:10264800900426EFF0A3EDF0A3EBF09003ABE0903D
:102658000429F09003ACE090042AF0E4A3F07B0195
:092668007A0479267F02021C703D
:10283C001208BEB4FF0C121C64B4FF06121C6AF41E
:06284C006002C322D3224A
:1027DB0074FF12090490000112091690000274FF95
:0A27EB00120916900003E40209161B
:1021C40090039CEBF0A3EAF0A3E9F030000E300199
:1021D4000BE490041DF0121BEE021CF0121C0312FF
:1021E400283C401990039F121C0612283C400E12F2
:0F21F4001BEE121CF05006E490041DF022C322D3
:101CF0009003A2EBF0A3EAF0A3E9F0A3121C0612F2
:101D000008BEFF9003A2121C061208BE6F702E9030
:101D100003A5121C06121C64FF9003A2121C0612DB
:101D20001C646F70189003A5121C06121C6AFF90A9
:101D300003A2121C06121C6A6F7002D32290041DAB
:101D4000E0FBC39403E49003AB5012F0A3F07D02D8
:101D50007F0112264890041DE004F0C322F0A3F096
:0E1D60007B047D037F01122648122930C32226
:10147800900410E06008121C597F0502154790047B
:1014880004E0FF6008121C597F0402154790041CF1
:10149800E0D3940040517B017A04790912283C502A
:1014A8001FC8E9C8CCEACC7D017A047917121C2B35
:1014B8007B017A0479171227DBE490041CF080275B
:1014C80090041CE0FBC394035012121C4A7D027F57
:1014D8000312264890041CE004F0800B121C4A7B7F
:1014E800047D037F03805890041BE0D39400405789
:1014F8007B017A04790512283C501FC8E9C8CCEA58
:10150800CC7D017A047913121C2B7B017A047913A0
:101518001227DBE490041BF0802D90041BE0FBC332
:1015280094035012121C4A7D027F0212264890042E
:101538001BE004F08011121C4A7B047D037F021219
:091548002648122930D322C322E7
:101D6E00C2007B017A0379FD12283C406D781E7CFF
:101D7E00047A0379FD121C277B017A0379FD122761
:101D8E00DBD2007A04791312283C50417A0479058B
:101D9E0012283C501D121C0F7D017F02122648781E
:101DAE00057C047D017B017A04791E7E007F04028E
:101DBE00089878137C04121C2390041B121C487D77
:101DCE00027F0212264890041B7401F022121C0F8F
:0B1DDE007D037F0212264812293022EC
:10261E00C2017B017A04790112283C401678227C93
:10262E00047D01121C2B7B017A0479011227DBD267
:0A263E0001D322300002D322C32290
:101DE9001214784073121D6E12261E506B90039FB9
:101DF9007401F0A37404F0A37422F07B017A0479CE
:101E09001E1221C450527B017A04791712283C50C2
:101E1900377A04790912283C5013121C0F7D017F6F
:101E29000312264878097C04121C23802878177C21
:101E390004121C2390041C121C487D027F031226E5
:101E49004890041C7401F022121C0F7D037F0312B9
:091E590026481229301227C1228B
:1001430060C8000400000004000000050000000671
:100153000000000100000007000000000000000094
:10016300000000000000000000000000000000008C
:10017300000000000000000000000000000000007C
:10018300000000000000000000000000000000006C
:10019300000000000000000000000000000000005C
:1001A300000000000000000000000000000000004C
:1001B300000000000000000000000000000000003C
:1001C300000000000000000000000000000000002C
:1001D300000000000000000000000000000000001C
:1001E300000000000000000000000000000000000C
:1001F30000000000000000000000000000000000FC
:1002030000000000000000000000000060C800CCF7
:1002130000010001000100070001000400010003C8
:1002230000030002000100010001000800050009AD
:100233000001000800010001000100020017000294
:10024300000100010001000800030009000100088B
:10025300000100010001000200010003000500028B
:100263000001000300010004000100050001000675
:100273000001000100010008001700080000000051
:10028300000000000000000000000000000000006B
:10029300000000000000000000000000000000005B
:1002A300000000000000000000000000000000004B
:1002B300000000000000000000000000000000003B
:1002C300000000000000000000000000000000002B
:1002D3000000000000000000420000000042000295
:0202E300000019
:10278500900000E0FEA3E07802223EF583A3E090EE
:0E27950003A9F0223EF583A3E09003AAF022F0
:01009200224B
:0316E400CDEFCD7A
:1016E700ED704E122785C333CE33CED8F92406F5D5
:1016F7008274003EF583E0FEA3E04E700690000082
:10170700F0A3F0122785C333CE33CED8F9FF2404D4
:10171700F582740012278F74062FF5827400122742
:1017270099900001E004F07069900000E004F080F7
:1017370061ED64017054900002122788C333CE33E1
:10174700CED8F924CEF58274003EF583E0FEA3E0FF
:101757004E7006900002F0A3F0900002122788C393
:1017670033CE33CED8F9FF24CCF582740012278FFD
:1017770074CE2FF5827400122799900003E004F0CD
:101787007006900002E004F080089003A974FFF04F
:08179700A3F07B017A0379A99C
:01179F002227
:0A295D00FFFFFF00000000FFFFFF76
:1002E5004203E100004103E3024103E4024A03E55E
:1002F500000202020202020001024103EF00410373
:10030500F0004103F1004203C900004203CB0000A5
:1010B3009003EFE024FCF582E43401F583E022FFA2
:1010C3009003EFE04F9003A8F07A0379A878AD7C02
:1010D300037D017B017E007F04020898F09003EFFB
:1010E300E0249EF582E43403F583E0227D017BFF57
:1010F3007E007F020208989003EFE024DFF582E48C
:101103003403F583229003AA74FFF0A3F09003A99C
:10111300F09003A7E0FF12256CEF2290039DE025DA
:10112300E0FF90039CE033FE74DB2FF974033EFA77
:101133007B01E922F582E43403F583E0FE74C92FD1
:10114300F582E43403F5832278A77C037D017E00D6
:101153007F030208989003EFE025E024DBF582E4A7
:10116300340322E0FEA3E0FF7C007D06020938354C
:10117300F0C8E9C8FC7D01229003EFE075F006A4F6
:1011830024CFF9740335F0FA229003EFE0FF24CD66
:10119300F582E43403F58322E02401FFE433FE7C8B
:1011A300007D0302094A24CBF582E43403F583224C
:1011B30074E52FF582E43403F5832225E024DCF57E
:0511C30082E434032268
:10000E001210B324EEF582E43401F583E0D39401AB
:05001E00400122D32285
:1026BE007BFF7A29795D12114B7B017A0379F61231
:1026CE00114B9003F674FFF0A3F0A3F07B017A0395
:0226DE0079A7DA
:0126E00022D7
:0F28E1001210B36F7002D3227F03122082C32222
:102671009003E2E024FFF09003E1E034FFF0D3A304
:10268100E094009003E1E0648094804002D322E46E
:082691009003E1F0A3F0C32265
:10190D0012118CE06401600A74CB2F121137E06E56
:10191D00603712117B7B01E024C9121143E075F091
:10192D0002A429F9EA35F0FA78A77C037D0112109B
:10193D00F39003EFE0FB24C912114312119B74C9FC
:10194D002B121143EDF00219A19003EFE0FF1216D7
:10195D00E478A77C037D011210F312117BE01211C4
:10196D00A9E075F002A429F9EA1211727B017A033C
:10197D0079A71210F39003EFE0FB1211A912119B3E
:10198D0074CB2B1211ABEDF09003EFE0FF24CB12D3
:0A199D001137EEF07B017A0379A701
:0119A700221D
:101AD200EFB401071210B364086036EFB4080712BE
:101AE20010B36401602BEFB401071210B3640760F6
:101AF20020EFB407071210B364016015EFB40407B6
:101B02001210B36407600AEFB407091210B3B404E9
:101B1200037F0122EFB401071210B364066036EFAF
:101B2200B406071210B36401602BEFB40107121060
:101B3200B364026020EFB402071210B364016015AF
:101B4200EFB403071210B36404600AEFB40409127D
:101B520010B3B403037F00227F021220827FFF2290
:0C2924001211B3E0B40203C38001D322FF
:05243B009003ADEFF07D
:1024400012256CEF9003ADB4020EE075F009A424E0
:102450009AF582E43401800CE075F009A42499F522
:1024600082E43401F583E09003AEF09003AEE0FF28
:012470002249
:1026990074EE2FF582E43401F583E0701612243BC1
:1026A900EF600C24F8F582E43401F583E07002C38D
:0426B90022D322D333
:0126BD0022FA
:051E62009003A7EFF062
:101E670012269940169003A7E0FF122924400C90F0
:101E770003A7E0FFD2031228A0801D121158F58393
:101E8700E0540E6003B40602C3229003A7E0FF905C
:101E970001FCE06F7002C3229003A7E0FF12243B0E
:101EA7009003A8EFF0602B9003AC74FFF09003A9A8
:101EB700F09003ABF09003A7E0FF121AD29003A8AB
:101EC700E025E02F9003AAF07A0379A91210D01227
:031ED7002867D3A6
:011EDA0022E5
:1028A0003003079003EFE0FE80027E021211B3EEC8
:0228B000F02214
:10256C001210B3FE75F009A42495F582E43401F53C
:10257C0083E06F6012EE75F009A42496F582E434C2
:0D258C0001F583E06F70037F02227F0022C3
:1028670078F27C037D017B017A0379AD7E007F04DA
:03287700020898BC
:03208200CDEFCDD2
:102085009003EFE0FEC454F04F9003ADF09003DFF2
:10209500E09003AEF09003E0E09003AFF09001FC18
:1020A500E09003B0F09001FDE09003B1F0EF24FC67
:1020B500600D240424F850028013121158800790F3
:1020C50003EFE01211BEF583E09003B2F07B017AD5
:0820D5000379ADE4FF021C7069
:052021009003A7EFF0A1
:10202600121158F583E0540E24FE602624FE603417
:1020360024FE60182406703E9003AB74FFF09003F4
:10204600AA12110F440C1210C21228671210FAE4D9
:10205600F02212110844081210C21228671210FA50
:102066007403F02212110844041210C212286712D7
:0B20760010FA7404F022E4FF12208234
:01208100223C
:10185800E490039CF0A3F090039CF0A3F090039C09
:10186800E0FEA3E0FF24CDF58274033EF583E4F0A7
:1018780074DF2FF58274033EF5837405F0EF25E0DD
:10188800FFEE33FE74DB2FF58274033EF583E4F03C
:1018980074DC2FF58274033EF583E4F012112BC03B
:1018A800E090039C12116674CF2FF974033E121155
:1018B80074D0E0F91210F312111EC0E01211667410
:1018C800D12FF974033E121174D0E0F91210F312FB
:1018D800111EC0E012116674D32FF974033E121161
:1018E80074D0E0F91210F390039DE004F0700690B4
:1018F800039CE004F090039CE07004A3E0640260A1
:041908000302186559
:01190C0022B8
:10038E00789C7C037A2979601210EF789E7C037A30
:10039E002979621210EF78A47C037D017BFF7A2904
:1003AE0079641211511226BE78A47C0312114F905B
:1003BE0003A5E0C41354019003F0F0E49003EFF0B2
:1003CE009003F1E054F02410FFF09003EFE0FE33C1
:1003DE00333354F8FD74DF2E121100E0FE2D4F90D2
:1003EE0003F1F0EE70030204AA14700302051A144E
:1003FE0070030205311470030205441470030205E4
:10040E00641460030205A3EE4D9003F1F09003EF28
:10041E00E0FF1210E4FE749C2FF582E43403F583A2
:10042E00EEF012190DE9C0E09003EFE075F002A4B2
:10043E0024DBF97403121172D0E0F91210F3900359
:10044E00EFE0FF1211BEF583E0FE749E2FF582E4FD
:10045E003403F583EE1210DFFF121E625003020505
:10046E003A7F041220829003A274FFF0A3F090034F
:10047E00A11210DFFF12256C9003EFE04F9003A046
:10048E00F078AD7C037D017B017A0379A01210D840
:10049E001228671210FA7402F00205A81210E0FF7B
:1004AE001228E1500B9003E4E0700512000E501676
:1004BE001210E0FF1228E140269003E3E070209036
:1004CE0003F0E0B401199003E3E070037402F07FCF
:1004DE000512208212118C7401F074DF2F803B9074
:1004EE0003EFE0249CF582E43403F583E0FFC203BE
:1004FE001228A09003E4E0B40104E4F08006900317
:10050E00E47402F09003EFE024DF800E12267150A7
:10051E00030205A89003EFE024DF1211007405F02A
:10052E000205A81210E0FF121E62506E1210E0FFBC
:10053E001220210205A81210E0FF1228E15015E446
:10054E009003E3F09003EFE0249C1205C2E4F07FE9
:10055E000612208280381210E0FF1228E1502F90F0
:10056E0003EFE0FD1210E4FE25E0049003A2F0A3D9
:10057E0074FFF09003A1F09003A0F09003E37401D8
:10058E00F0749C2D1205C2E4F07F07122082121027
:10059E00FAE4F08005E4FF1220829003F1E0FDE41E
:1005AE00FF12253E9003EFE004F0E0C394025003E7
:0305BE000203CE67
:1005C10022F582E43403F583E0FFC2031228A090F0
:1005D10003E47401F09003EFE024CDF582E43403E9
:0305E100F583227D
:03297000D2B422BC
:0C293000C2B41229731229183090FD2245
:1003150041043100410432004104330041043400FA
:10032500410435004104360041043D0541043F01C7
:04033500410440013E
:1022B600900439E0A3FFE06FFF900438E06F9004CC
:1022C60037F022900409E05402C4333354C02290FC
:1022D60004397401F0229004367404F090043A74C0
:0A22E60052F0222480900438F02208
:030023000225991A
:10259900C0E0C083C082C0D030981790042DE5995F
:1025A900F0E0B401097599009004347401F0C298FF
:0D25B9008002C299D0D0D082D083D0E03211
:100F980090043EE0700B90040974FFF0A3F0A3F0F6
:100FA80022900434E0FF7018900431E004F09004BB
:100FB8003DE0FE900431E06E60030210B20210AC16
:100FC800E4900431F020B50302109AE4900435F05F
:090FD800A3E07056EF64017051B2
:100FE10090039C74FFF0900409E0F46007E490031F
:100FF1009CF0801C90040AE0F4600890039C74014A
:10100100F0800D90040BE0F4600690039C7402F0F4
:1010110090039CE014601214601424037003021006
:10102100B214700D121EDB800812002680031224F8
:01103100714D
:10103200900436E0FFD39400401D30B5F374362F90
:10104200F582E43404F583E0F5993099FD90043695
:10105200E014F0C29980D9E4900434F0900409E0DD
:10106200F46002801190040AE0F4600E900440E003
:10107200B4010790040A74FFF02290040BE0F460BC
:101082002F90043FE0B40103E4F02290040B74FFBC
:10109200F090043F7401F022900435E004F09004D3
:1010A2003DE0FF900435E06F700690040C7404F08C
:0110B200221B
:101EDB009004367406F090043C74E4F090043B7468
:101EEB0013F0E490043AF0900409E0FF20E00512AF
:101EFB0022D5800AEF30E0069004397402F0EF131C
:101F0B00135403FF70051222C9801EEFB401071290
:101F1B0022C944088013EF900409B402071222CCA3
:101F2B00441F80051222CC44DD900438F090043B12
:101F3B00E0FFA3E06FFF90043AE06F9004391222A8
:011F4B00BBDA
:011F4C002272
:100026001222DC90040AE0C313FEBE0109E4900428
:1000360039F07D038014BE02071222D5E4FD800A42
:10004600BE0307E4900439F07D02CFEDCFEF25E043
:10005600FD900440E06401701790040AE030E0056A
:10006600ED44018001ED1222E9E4900440F080188D
:1000760090040AE030E005ED44088003ED440912DF
:0B00860022E99004407401F01222B641
:01009100224C
:102471001222DC90040BE0C313FEBE01071222D529
:102481007D028007BE02041222D5FDCFEDCFEF25DC
:10249100E0FD90043FE0B40103ED8003ED44081238
:0524A10022E91222B641
:0124A6002213
:10276500D2B590043E7401F0E490040CF0D2DFC2BF
:102775009FD29E75BA0375AADFD29CD299D2AC229C
:1003390060200356000000000000000000000000DB
:1003490000000000000000000000000000000000A4
:10035900000000006020037600000000000000009B
:100369000000000000000000000000000000000084
:0803790000000000000000007C
:10250C00900397E025E0FF900396E033FE74762F5E
:10251C00F58274033EF58322E0FCA3E0FD74562F94
:10252C00F58274033EF58322900396E0FEA3E0FF50
:02253C00C322B8
:1027F500C2F8C2F9C2FAD2FBE4900398F0A3F090B4
:0828050003FA74FFF0A3F022B6
:102825009003FAE0B4FF0FA3E0B4FF0AE49003FAC3
:07283500F0A3F0121FBE2208
:101FBE00D2F87F0312293CD2FA122014D2F97F07ED
:101FCE0012293CC2F97F0712293CE4FFFE12239727
:101FDE00C2F87F0912293C900396E4F0A304F01294
:101FEE0025349410EE648094805018D2FA12239700
:101FFE00122014900397E004F070E4900396E0042E
:10200E00F080DC0217A07F0912293CC2FA7F091268
:03201E00293C2238
:10239700CDEFCDCCEECCA2FBE433FBED25E0FFEC9B
:1023A700122517E4F0A3EBF0122519C083C082E0D1
:1023B700FEA3E07807C333CE33CED8F9FFD082D05F
:0723C70083EEF0A3EFF0220A
:1017A000900396E4F0A3740FF0122534EE64809455
:1017B000805003021857EF25E0FFEE12251712257F
:1017C00024E0FEA3E06D7002EE6C700712250CE4BD
:1017D000F0A3F0900396E0FCA3E0FDC39408EC6452
:1017E0008094805025900396E0FAA3E0FB25E0FF6B
:1017F000EA122517A3E0FF9003FAE02FF0D3EB9451
:1018000000EA648094804033802EC3ED9410EC6431
:101810008094805026900396E0FCA3E0FD25E0FF35
:10182000EC122517A3E0FF9003FBE02FF0D3ED941B
:1018300008EC648094804003E013F012250C12251C
:1018400024ECF0A3EDF0900397E024FFF0900396D2
:08185000E034FFF00217A922A9
:0B293C00EFD394004004001F80F6223F
:0B295200E02441F582E43404F5832208
:1025F200E4FF7E0690044174FFF0A3DEFCC28C531C
:1026020089F75389FB5389FD438901758ACA758C01
:0B2612007D43A90243B902D2A9D28C7B
:01261D00229A
:0B294700C28C758ACA758C7DD28C2270
:10253E009003A8EDF09003A7EFF0D39406500E127F
:10254E002952E0FF9003A8E0FEEF6E7003122930CF
:0E255E009003A8E0FF9003A7122952EFF0228D
:03297300C28C22F1
:03000B0002217C53
:10217C00C0E0C0F0C083C082C0D0E8C0E0E9C0E0DD
:10218C00EAC0E0EBC0E0ECC0E0EDC0E0EEC0E0EF98
:10219C00C0E0122930D0E0FFD0E0FED0E0FDD0E06E
:1021AC00FCD0E0FBD0E0FAD0E0F9D0E0F8D0D0D011
:0821BC0082D083D0F0D0E032A4
:0C038100410448014104490141044A00C4
:0E28FE00900448E024FE22900449E024FE22CB
:1026E1001228FE600E1460122402701490044874C3
:1026F10002F0229004487403F0229004487401F01F
:0127010022B5
:102702001228FE600E1460122402701490044874A1
:1027120003F0229004487401F0229004487402F0FD
:012722002294
:10272300122905600E146012240270149004497477
:1027330002F0229004497403F0229004497401F0DA
:012743002273
:10274400122905600E146012240270149004497456
:1027540003F0229004497401F0229004497402F0B9
:012764002252
:10280D00D203900405E0B4FF0CA3E0B4FF07A3E0EE
:07281D00B4FF02C203A20395
:012824002291
:1027A30030021A90044BE0B4FF10A3E0B4FF0BA374
:0E27B300E0B4FF0690040474FFF01223282205
:10232800900401E0F4702AA3E0B4FF25A3E0B4FF11
:102338002090044BE0900401F090044CE0900402DB
:10234800F090044DE0900403F0E4A3F090044AF008
:082358002290044A740AF022ED
:030093000220DD6B
:1020DD00C0E0C0F0C083C082C0D0E8C0E0E9C0E07D
:1020ED00EAC0E0EBC0E0ECC0E0EDC0E0EEC0E0EF38
:1020FD00C0E0E5AB30E0031223CEE5AB30E10312D7
:10210D00287AD0E0FFD0E0FED0E0FDD0E0FCD0E0BA
:10211D00FBD0E0FAD0E0F9D0E0F8D0D0D082D08377
:05212D00D0F0D0E0320B
:10287A00122702122744E5AB30E00475AB0122E4CB
:03288A00F5AB2289
:1023CE00122905600C1460142402701E90044B80B8
:1023DE000390044CE595F0122723800E90044DE5F2
:1023EE0095F0122723D2021227A3E5AB30E1047534
:0723FE00AB0222E4F5AB2263
:102203001228FE60111460172402703012280D503A
:102213002B9004058003900406E0F5940226E190D8
:102223000407E0F5941226E1900448E0B4010D9010
:0D223300040574FFF0A3F0A3F0E4A3F02273
:10288D0090044AE024F66004240A800302232812EF
:03289D00220322F1
:102852007593EAD2AF539AFB75AC03439A0453A91A
:052862000443B904224B
:03000000021B627E
:0C1B6200787FE4F6D8FD758120021BA9F5
:1007C800E709F608DFFA8046E709F208DFFA803E13
:1007D80088828C83E709F0A3DFFA8032E309F60800
:1007E800DFFA8078E309F208DFFA807088828C8368
:1007F800E309F0A3DFFA806489828A83E0A3F6081C
:10080800DFFA805889828A83E0A3F208DFFA804CF5
:1008180080D280FA80C680D4806980F280338010CC
:1008280080A680EA809A80A880DA80E280CA803335
:1008380089828A83ECFAE493A3C8C582C8CCC583AD
:10084800CCF0A3C8C582C8CCC583CCDFE9DEE7807D
:100858000D89828A83E493A3F608DFF9ECFAA9F0FC
:10086800EDFB2289828A83ECFAE0A3C8C582C8CC52
:10087800C583CCF0A3C8C582C8CCC583CCDFEADE6B
:10088800E880DB89828A83E493A3F208DFF980CCCD
:1008980088F0EF60010E4E60C388F0ED2402B404C6
:1008A8000050B9F582EB2402B4040050AF2323456D
:0608B80082239008187372
:1008BE00BB010689828A83E0225002E722BBFE0238
:0908CE00E32289828A83E493226B
:1008D700BB010CE58229F582E5833AF583E02250D6
:1008E70006E92582F8E622BBFE06E92582F8E22220
:0D08F700E58229F582E5833AF583E493223A
:10090400BB010689828A83F0225002F722BBFE01D2
:02091400F322CC
:10091600F8BB010DE58229F582E5833AF583E8F017
:10092600225006E92582C8F622BBFE05E92582C8C3
:02093600F222AB
:10093800EF8DF0A4A8F0CF8CF0A428CE8DF0A42ED3
:02094800FE228D
:10094A00BC000BBE0029EF8DF084FFADF022E4CC91
:10095A00F875F008EF2FFFEE33FEEC33FCEE9DEC5A
:10096A00984005FCEE9DFE0FD5F0E9E4CEFD22EDA0
:10097A00F8F5F0EE8420D21CFEADF075F008EF2FEA
:10098A00FFED33FD4007985006D5F0F222C398FDDB
:05099A000FD5F0EA2278
:101B6E00020003E493A3F8E493A34003F68001F28A
:101B7E0008DFF48029E493A3F85407240CC8C33378
:101B8E00C4540F4420C8834004F456800146F6DF47
:101B9E00E4800B0102040810204080900096E47E41
:101BAE00019360BCA3FF543F30E509541FFEE4933C
:101BBE00A360010ECF54C025E060A840B8E493A303
:101BCE00FAE493A3F8E493A3C8C582C8CAC583CA2E
:101BDE00F0A3C8C582C8CAC583CADFE9DEE780BEE6
:01038D00006F
:00000001FF
