:1022A50090034CE02401FFE433FE7C007D1E1209FF
:1022B5003CEDF02290034DE075F007A4247AF582F9
:1022C500E43402F58322E5822FF582E43583F58334
:0B22D50022122956C2FD122956EF22EA
:0C28FD00E490034CF0A3F0900279F0226C
:101CE4009003C5EFF0A3EBF0A3EAF0A3E9F09003AF
:101CF4004DE0C3941E4002E4F0900279E0C3941EC8
:101D040040109003C5E02410F01222A590027974CB
:101D14001DF09003C5E0FF1222B9EFF09003527456
:101D240001F0900352E0FF24FFFDE434FFFC900334
:101D3400C6E0FBA3E0FAA3E0F98D828C831208C904
:101D4400FE1222B91222CBEEF0900352E004F0E02E
:101D5400B407CF900279E004F090034D1222A82238
:10199A00900279E07003021A2F90034CE0C3941E60
:1019AA004002E4F01228E190034E74FFF0E4FD7F58
:1019BA00081228C390034EE0F4706A900279E0FF9F
:1019CA00C3940490034F5004EFF080037404F0E4CE
:1019DA00900350F090034FE0FFA3E0C39F5043E40D
:1019EA00A3F0900351E0FFC39407502590034E746F
:1019FA00FFF090034C1222BC1222CBE0FF12226AA3
:101A0A0090034EE0F460028019900351E004F080E4
:101A1A00D11222A5900279E014F0900350E004F06C
:061A2A0080B21228A32285
:0C290900900279E0600512199A80F52216
:0D28E100E4FF0000000000000FEFB4C8F598
:0128EE0022C7
:0929560000000000000000002256
:1025BA00E4900354F0A3F0D2FD20FD1F900355E0F0
:1025CA0004F07006900354E004F0900354E07002A3
:0C25DA00A3E070E590034EE05402F022F4
:0F28C300D2FD122956C2FC1222D62DFF02226A24
:10226A00E4900353F0EF30E704D2FC8002C2FC1280
:10227A0025BA1222D625E0FF900353E004F0E0C30A
:10228A00940840E1D2FC1225BA12295630FC079074
:0B229A00034EE05401F0C2FD02295683
:1028A300C2FC1229561225BA122956D2FC02295605
:100096004101FE004101FF00460200000000000091
:1000A60000410206014A026100000300000000034D
:1000B600010044026B0000000044026F00000000D3
:0F00C600420273070842027500004202770101EF
:100CC700820392039003A0E075F009A4FFAEF0A39E
:100CD700E0FBA3E0FAA3E0229000012FF9EA3EFA35
:100CE7000208C99000032FF9EA3EFA0208C99000EA
:100CF700042FF9EA3EFA0208C9E075F009A42407AF
:100D0700F9740235F0FA7B017D017E007F09020844
:100D17008A9003A0E0246BF582E43402F583E02295
:100D2700E0FF2473F582E43402F58322E02461F5C1
:100D370082E43402F583E022A3F0E4A3F07403A372
:100D4700F0E4A3F0A3229000062FF9EA3EFA020886
:100D5700C9F91208B0246FF582E43402F583E02262
:100D6700A3F0A314F0A304F0A304F0E4A3F022A3D8
:100D7700F0A314F07408A3F0A37401F02282039285
:100D8700039003A0E004F0E0229000072FF9EA3E69
:100D9700FA0208C9F0E4A3F0A3F0A3F022F07475F7
:100DA7002DF582E43402F583229003A07401F0222A
:100DB700FDE0FBA3E09003B1F022F074772EF582FB
:100DC700E43402F58322A3F0A37401F0A322EBF02D
:100DD700A3EAF0A3E9F022E0FE74FC2FF582E434E5
:100DE70001F58322FD9003B37401F0A322FE74EE94
:100DF7002FF582E43401F58322FE74F82FF582E49F
:100E07003401F58322FE5401F0EE5402C31322E0AD
:100E1700FF75F009A4227D017B017E0002088AF993
:050E270074630208F6EF
:1028B3001212A912231AE49003FAF0A3740CF02263
:10138E00E490039CF09001FEE014603714604F145B
:10139E007003021427240360030214389003FAE04A
:1013AE00B4FF08A3E0B4FF030214301205D65005B3
:1013BE001224CE40057D0102143A9001FE7401F014
:1013CE00021442121543400F9001FFE004F0D39433
:1013DE000540617D028055E49001FFF080441209C2
:0313EE0091502FEC
:1013F1009003F2E090039D120E0CFFA3F09003F214
:10140100E054FC1313543FFE90039FF090039DE0C2
:0F141100FD2477120DC5EF120DA4EEF012238A01
:10142000E49001FEF0801B120B3A40047D03800A19
:101430009001FE7402F0800A7D04E4FF12249B12E6
:10144000294C900206E0C394024006E4FDFF1224FA
:101450009B9001FFE033333354F8FF9001FEE05FCF
:0A14600090039CF0FD7F010225328D
:100B3A00120DB0D203A3F0A37402F07407120D7D54
:100B4A00A37401F0A37494F0120DB09003A1120CD7
:100B5A00D7F99003A0120E16F58285F0831208C900
:100B6A00FE9003A4120CD7F975F009EFA4F582855B
:100B7A00F0831208C96E7003D38001C3120CC71226
:100B8A000CDFFD9003A4120CD7120CDF6D7003D397
:100B9A008001C3120CC7900002120CE2FD9003A45C
:100BAA00120CD7900002120CED6D7003D38001C3B2
:100BBA00120CC7120CEAFD9003A4120CD7120CEA0D
:100BCA006D7003D38001C3120CC7120CF5FD90039C
:100BDA00A4120CD7120CF56D7003D38001C3120C4A
:100BEA00C7900005120CF8FD9003A4120CD79000D0
:100BFA0005120D506D7003D38001C3120CC7120D7C
:100C0A004DFD9003A4120CD7120D4D6D7003D380C5
:100C1A0001C3120CC7120D90FD9003A4120CD71237
:100C2A000D906D7003D38001C3120CC79000081297
:100C3A000D93FD9003A4120CD72FF9EA3EFA900007
:100C4A00081208C96D7003D38001C382039203207E
:100C5A000302C322120D8864096003020B55120DA8
:100C6A00B09003A0E0FF120D34120DF4E06E700391
:100C7A00D38001C3120D84B409E7200302C32212F0
:100C8A000DB09003A0E0FF120D1C120E00E06E7072
:100C9A0003D38001C3120D84B403E7200302C322E5
:100CAA00120DB09003A0120D27120DDEE06E700334
:0C0CBA00D38001C3120D84B402E9A20330
:010CC600220B
:1005D6009003FCE060057D080206849003FAE0B40F
:1005E600FF07A3E0B4FF02D3227F01E49003A0F04B
:1005F6009003A0E0FEC3940850419003FAE05F60C8
:10060600047D0180027D0074A12EF582E43403F599
:1006160083EDF09003FBE05F60047E0180027E00C4
:100626009003A0E024A9F582E43403F583EEF0EF0D
:1006360025E0FF9003A0E004F080B59003A07401CC
:0E064600F09003A0E0FFD3941040030207B829
:1006540074A02FF582E43403F583E070030207AF3E
:100664009003A0E0FF9003BC7401F0A37403F0A313
:1006740074B6F07B017A0379B5120E2C40097D091A
:100684007F0112249BC3229003A0E0FF9003BC745B
:1006940001F0A37403F074B2120DCD7403F074B3BB
:1006A400120DCD7403F0A374B4F07B017A0379B115
:1006B4001211BA4001229003B6E0B401047F018014
:1006C400027FFF9003B1E06005120D342FF0900318
:1006D400B2E06006120D34C39FF09003B3E06005EE
:1006E400120D1C2FF09003B4E06006120D1CC39F82
:1006F400F09003B1E07033A3120E162408F582E4DF
:100704003402F583E09003B1F0EF75F009A42409F5
:10071400F582E43402F583E0FF600F9003B3E01246
:100724000D5CB401059003B1EFF09003B2E07035B5
:100734009003B1120E16240AF582E43402F583E024
:100744009003B2F0EF75F009A4240BF582E43402AF
:10075400F583E0FF600F9003B4E0120D5CB4010573
:100764009003B2EFF09003B5120D27E0FE9003B7AB
:10077400F09003B2E0FDEE6D70169003B6E0B401A4
:100784000F9003B1E0FE74732F120D2BEEF0801B5B
:100794009003B1E0FF9003B7E06F700F9003B6E0F1
:0B07A40070099003B5E0120D29EDF084
:0A07AF009003A0E004F0020647D317
:0107B900221D
:1024CE009003FAE0B4FF07A3E0B4FF02D322900317
:1024DE00F6E0B4FF05A3E0F460097D0A7F02122442
:1024EE009BC32278F67C037A0379FA7F03120E1DC2
:0224FE00D322E7
:10099100E49003A0F0A3F09003F4E0FFB4FF109003
:1009A10003F3E0B4FF099003F2E0B4FF02C322EFC6
:1009B100F460169003F4E054FEC3139003A1F0D346
:1009C100940240057D10020B319003F3E0FFF460C7
:1009D10013EF54FEC3139003A0F0D3940340057D9D
:0E09E10011020B319003F4E0F47003020A855A
:1009EF00C203900275E09003A2F0900276E09003AC
:1009FF00A3F0900273E09003A4F0900274E09003D0
:100A0F00A5F09003A1E024FE603404705F9003A46E
:100A1F00E0FF64026004EFB4030A9003A2E06401F4
:100A2F006002D2039003A5E0FF64026005EF640348
:100A3F00703A9003A3E064016032D203802E9003DA
:100A4F00A4E0FF64086004EFB4090A9003A2E06415
:100A5F00016002D2039003A5E0FF64086004EFB4C5
:100A6F00090A9003A3E064016002D2033003057DFD
:060A7F0012020B31D3222C
:080A85009003F3E0FFF4602D83
:100A8D00EF54019003A2F0120D1860057D13020BB7
:100A9D00319003A0E0FF121FC15012120D18FF90EC
:0D0AAD0003A2E0FEEF6E60057D14020B3128
:080ABA009003F2E0FDF4607608
:100AC200E09003A2120E0CA3F0FEED54FC1313549B
:100AD2003FA3F09003A2E0120D29E0FF9003A5F0DE
:100AE200CDEECD120DEC7403F0A374A7F07B017A66
:100AF2000379A612161A9003A6120D33600C900306
:100B0200A4E0640260047D1580259003A7E06009DB
:100B1200120D1C60047D1680169003A5E0FF900361
:100B2200A3E09003A6120DB7121A3050097D177F69
:060B32000312249BC32204
:010B3800D3E9
:010B39002299
:10238A009003F4E0B4FF0E9003F3E0B4FF07900368
:10239A00F2E0F4602178FD7C037A0379F27F04127B
:1023AA000E1D9003F474FFF09003F3F09003F2F023
:0723BA009003F97401F02209
:10231A00E4FF0F74612F120D36120DF4EEF00FEF79
:10232A00B409F07F01746B2F120D1E120E00EEF02D
:10233A000FEFB403F07F0174732F120D2B120DDE11
:07234A00EEF00FEFB402F00A
:012351002269
:1012A9009002107401F0A304F07407120D76A37470
:1012B90003120DCE7409F0A37402120D6E120D6F94
:1012C900A3F0A304F07403120D677402120D46749F
:1012D90002F0E4A3F07404120D67A37407120D431E
:1012E9007402F0A37406F0A314F0A3120D6EA37494
:1012F90004120D9BA37407F0A314F0120D7DE4A34F
:10130900F07405120D3F7408F0A314F0A3F0A37450
:1013190004F0E4A3120D6EA37402F0A314F0740B8D
:10132900120D76E4A3F07409120D3F740CF0A304B6
:10133900F0A37409F0A314120D9BA3F0A3F0A374F6
:101349000DF0A304F090039C7401F090039CE0FF5E
:10135900C39409502FEF75F009A4FFAEF02407F9E3
:1013690074023EFA7B01E9C0E074942FF974013EDE
:10137900C8E9C8FC7D01D0E0F9120D1190039CE089
:0413890004F080C725
:01138D00223D
:060E2C009003B9120DD580
:100E3200900273E0FEA3E09003BF120D9BEF14B487
:100E42000E004003020F0D900E5775F003A4C583E8
:100E520025F0C58373020E81020E88020E8F020EE8
:100E620096020E9D020EAC020EB3020EBD020EC819
:100E7200020ED5020EE0020EEB020EF6020F0490F5
:100E820003C07401801A9003C0740180299003C0CA
:100E9200740280229003C07403801B9003C0740309
:100EA200F0A304F0A37407F0806A9003C074048076
:100EB200059003C07405F0A30480419003C074063A
:100EC200F0A3740180369003C07406120DCE74082C
:100ED200F080419003C07401F0A37407801E900358
:100EE200C07407F0A3740480139003C07408F0A3C5
:100EF200740180089003C07409F0A314F0E4A3F015
:100F020080129003C07409F0E48005E49003C0F0FD
:100F1200A3F0A3F09003C0E0FF6E600BA3E0FD6EB0
:100F22006005A3E06E701A9003B9120CD7F9E412AF
:100F320008F6900277E0FE9003BC120CD7F9EE801F
:100F42002E9003BFE0FE6F600DEE6D60099003C24C
:100F5200E0FFEE6F701E9003B9120CD7F974011204
:100F620008F6900278E0FF9003BC120CD7F9EF125A
:100F720008F6D3229003B9120CD7120E269003BCA6
:070F8200120CD7120E26C36A
:010F89002245
:0611BA009003B9120DD5EF
:1011C000E41208F69003BC120CD7F9E41208F6906A
:1011D00003BF120CD7F9E41208F69003C2120CD721
:1011E000F9E41208F67E01EE75F009A4240EF582EA
:1011F000E43402F583E06F700B9003BC120CD7F956
:10120000EE1208F6EE75F009A4240FF582E434021C
:10121000F583E06F700B9003B9120CD7F9EE12084A
:10122000F60EEEB409C19003B9120CD7F91208B04A
:1012300070159003BC120CD7F91208B070097D0B21
:101240007F0412249BC3229003B9120CD7F9120811
:10125000B070249003BC120CD7F91208B075F009D5
:10126000A4240CF582E43402F583E0FF9003BF125E
:101270000CD7F9EF1208F69003BC120CD7F912083C
:10128000B070249003B9120CD7F91208B075F009A8
:10129000A4240DF582E43402F583E0FF9003C2122A
:0812A0000CD7F9EF1208F6D398
:0112A8002223
:10154300C203E49003A0F09003A0E0FEC394024022
:04155300030215E199
:10155700E0FD120D29E0FF9003A1120DA4E0900316
:10156700A2120DC1E0FE9003A3F0120DEB7403F07D
:10157700A374A5F07B017A0379A412161A9003A22B
:10158700E0D39402400C9003A4120D3360047D2035
:1015970080239003A1E0FFC374019FFFE49400FE42
:1015A70074732FF58274023EF583E0FF9003A4E085
:1015B7006F70077D2112161280209003A1E0FF9023
:1015C70003A3E0A3120DB7121A3050057D2212169D
:0115D7001201
:1015D8009003A0E004F002154A9003A07401F09073
:1015E80003A0E0FFC39409501E74612F120D36D377
:1015F8009404400B7D237F0512249BD2038008901E
:0916080003A0E004F080D8A20365
:09161100227F0512249BD2032262
:0B1A30009003AEEFF0A3EDF0A3EBF08D
:101A3B00A3E0120D5C9003C4F09003AE78B27C036C
:101A4B00120D009003B078BB7C03120D009003B114
:101A5B00E07002D3229003AFE0FF6401702B900380
:101A6B00B4E070259003BEE0FE9003AEE0FD6E7017
:101A7B00099003C4E0B40102C3229003BFE06D7070
:101A8B00369003C4E07030C322EF702B9003B6E0A6
:101A9B0070259003BCE0FF9003AEE0FE6F700990E1
:101AAB0003C4E0B40102C3229003BDE06E70089042
:081ABB0003C4E07002C322D352
:011AC3002200
:051FC1009003A8EFF001
:0D1FC600E4A3F09003A9E0FFC39402505D76
:101FD300E0FE120D29E09003AC120DC1E09003ADB9
:101FE300F074752F120DA8E0603A9003ACE0FFA3E4
:101FF300E0120DEB7403F0A374ABF07B017A037969
:10200300AA12161A9003ACE0FFA3E0FD9003AA12F4
:102013000DB8121A30500D9003A8E0FF9003ABE007
:042023006F700122B7
:0A2027009003A9E004F0021FC9C3F2
:01203100228C
:09161A009003AFEDF0A3120DD511
:10162300EF75F009A42407F9740235F0FA7B017809
:10163300B67C03120D0F9003AFE0FF6401703E9080
:1016430003B7E0FE9003B0120CD7F9EE1208F69040
:1016530003BBE0FE9003B3120CD7F9EE1208F69029
:1016630003B8E0FE606C9003B3120CD7120D5864FC
:1016730001705F9003B0120CD7F9EE8052EF703D0A
:101683009003B9E0FF9003B0120CD7F9EF1208F6FC
:101693009003BCE0FF9003B3120CD7F9EF1208F6E6
:1016A3009003BAE0FF602B9003B3120CD7120D58CE
:1016B300B4011F9003B0120CD7F9EF80129003B05E
:1016C300120CD7120E269003B3120CD7F9746312BF
:0216D30008F617
:0116D50022F2
:10249B00900200EFF0A3EDF09001FEE0900202F04D
:1024AB009001FFE0900203F0900273E0900204F0C1
:1024BB00900274E0900205F07B017A0279007F01B3
:0324CB00021CE40C
:1000D5004403F2FFFFFF004403FDFFFFFF0044045C
:1000E50001FFFFFF00440405FFFFFF00440409FF73
:1000F500FFFF0044040DFFFFFF004303F6FFFF0071
:100105004303FAFFFF004103F9FF410411FF4104D6
:0201150012FFD7
:101BE000D2AF1200031225E61228FD12292C12276B
:101BF0005912292C1227E912292C12284312292CB8
:101C00001227B512292C1228B312292C12184A12A5
:101C1000292C12000912292C12038E12292C120FC2
:101C20008A12292C12280112292C12287E12292C02
:101C300012138E12292C12199A12292C120F8A12A1
:101C4000292C12287E12292C120F8A12292C121EDE
:101C50005D12292C12287E12292C12199A12292C75
:021C600080B64C
:10011700440413FFFFFF00440417FFFFFF004104DF
:100127001B0041041C0041041D0044041EFFFFFF87
:0C01370000440422FFFFFF00C100C101D2
:101C620090039FE0F9A3E0FAA3E09003A5C9F0A3D3
:101C7200EAF0A3E9F090039CE0FBA3E0FAA3E0F909
:101C82002290041EE0FBA3E09003ABF0900420E05E
:101C92009003ACF0227A04791E7D017B017E007FE5
:101CA2000402088A74FFF0A3F0A3F0E4A3F0A37483
:101CB200FFF0A3F0A3F0E4A3F022E0FBE49003AB77
:101CC200F0A3F022F0A3F0A3F0A3229003ABF0E480
:101CD200A3F0FB7D03229000010208C990000202DA
:021CE20008C92F
:1027B500E490041B121CC6121CA6A3121CC6F0A38F
:0A27C500F0A3F0900413121CA622EA
:10263C00900426EFF0A3EDF0A3EBF09003ABE09049
:10264C000429F09003ACE090042AF0E4A3F07B01A1
:09265C007A0479267F02021CE4D5
:102818001208B0B4FF0C121CD8B4FF06121CDEF468
:062828006002C322D3226E
:1027CF0074FF1208F690000112090890000274FFBE
:0A27DF00120908900003E402090843
:1021EE0090039CEBF0A3EAF0A3E9F030000E30016F
:1021FE000BE490041DF0121C62021D64121C771277
:10220E002818401990039F121C7A122818400E129B
:0F221E001C62121D645006E490041DF022C322BE
:101D64009003A2EBF0A3EAF0A3E9F0A3121C7A1209
:101D740008B0FF9003A2121C7A1208B06F702E9064
:101D840003A5121C7A121CD8FF9003A2121C7A120B
:101D94001CD86F70189003A5121C7A121CDEFF90D9
:101DA40003A2121C7A121CDE6F7002D32290041D4F
:101DB400E0FBC39403E49003AB5012F0A3F07D0264
:101DC4007F0112263C90041DE004F0C322F0A3F02E
:0E1DD4007B047D037F0112263C12294CC322A2
:10146A00900410E06008121CCD7F05021539900423
:10147A0004E0FF6008121CCD7F0402153990041C99
:10148A00E0D3940040517B017A047909122818505C
:10149A001FC8E9C8CCEACC7D017A047917121C9FCF
:1014AA007B017A0479171227CFE490041CF0802775
:1014BA0090041CE0FBC394035012121CBE7D027FF1
:1014CA000312263C90041CE004F0800B121CBE7B25
:1014DA00047D037F03805890041BE0D39400405797
:1014EA007B017A047905122818501FC8E9C8CCEA8A
:1014FA00CC7D017A047913121C9F7B017A0479133B
:10150A001227CFE490041BF0802D90041BE0FBC34C
:10151A0094035012121CBE7D027F0212263C9004D4
:10152A001BE004F08011121CBE7B047D037F0212B3
:09153A00263C12294CD322C322E5
:101DE200C2007B017A0379FD122818406D781E7CAF
:101DF200047A0379FD121C9B7B017A0379FD122779
:101E0200CFD2007A04791312281850417A04790546
:101E1200122818501D121C837D017F0212263C7865
:101E2200057C047D017B017A04791E7E007F040219
:101E3200088A78137C04121C9790041B121CBC7D28
:101E4200027F0212263C90041B7401F022121C83B2
:0B1E52007D037F0212263C12294C2267
:10261200C2017B017A047901122818401678227CC3
:10262200047D01121C9F7B017A0479011227CFD20B
:0A26320001D322300002D322C3229C
:101E5D0012146A4073121DE2122612506B90039FEA
:101E6D007401F0A37404F0A37422F07B017A047959
:101E7D001E1221EE50527B017A0479171228185048
:101E8D00377A0479091228185013121C837D017FAB
:101E9D000312263C78097C04121C97802878177C45
:101EAD0004121C9790041C121CBC7D027F03122689
:101EBD003C90041C7401F022121C837D037F0312DD
:091ECD00263C12294C1227B52213
:1001430060C8000400000004000000050000000671
:100153000000000100000007000000000000000094
:10016300000000000000000000000000000000008C
:10017300000000000000000000000000000000007C
:10018300000000000000000000000000000000006C
:10019300000000000000000000000000000000005C
:1001A300000000000000000000000000000000004C
:1001B300000000000000000000000000000000003C
:1001C300000000000000000000000000000000002C
:1001D300000000000000000000000000000000001C
:1001E300000000000000000000000000000000000C
:1001F30000000000000000000000000000000000FC
:1002030000000000000000000000000060C800CCF7
:1002130000010001000100070001000400010003C8
:1002230000030002000100010001000800050009AD
:100233000001000800010001000100020017000294
:10024300000100010001000800030009000100088B
:10025300000100010001000200010003000500028B
:100263000001000300010004000100050001000675
:100273000001000100010008001700080000000051
:10028300000000000000000000000000000000006B
:10029300000000000000000000000000000000005B
:1002A300000000000000000000000000000000004B
:1002B300000000000000000000000000000000003B
:1002C300000000000000000000000000000000002B
:1002D3000000000000000000420000000042000295
:0202E300000019
:10277900900000E0FEA3E07802223EF583A3E090FA
:0E27890003A9F0223EF583A3E09003AAF022FC
:0100090022D4
:0316D600CDEFCD88
:1016D900ED704E122779C333CE33CED8F92406F5EF
:1016E9008274003EF583E0FEA3E04E700690000090
:1016F900F0A3F0122779C333CE33CED8F9FF2404EF
:10170900F582740012278374062FF582740012275C
:101719008D900001E004F07069900000E004F08011
:1017290061ED6401705490000212277CC333CE33FB
:10173900CED8F924CEF58274003EF583E0FEA3E00D
:101749004E7006900002F0A3F090000212277CC3AD
:1017590033CE33CED8F9FF24CCF582740012278317
:1017690074CE2FF582740012278D900003E004F0E7
:101779007006900002E004F080089003A974FFF05D
:08178900A3F07B017A0379A9AA
:011791002235
:0A294200FFFFFF00000000FFFFFF91
:1002E5004203E100004103E3024103E4024A03E55E
:1002F500000202020202020001024103EF00410373
:10030500F0004103F1004203C900004203CB0000A5
:1010A5009003EFE024FCF582E43401F583E022FFB0
:1010B5009003EFE04F9003A8F07A0379A878AD7C10
:1010C500037D017B017E007F0402088AF09003EF17
:1010D500E0249EF582E43403F583E0227D017BFF65
:1010E5007E007F0202088A9003EFE024DFF582E4A8
:1010F5003403F583229003AA74FFF0A3F09003A9AB
:10110500F09003A7E0FF122560EF2290039DE025F4
:10111500E0FF90039CE033FE74DB2FF974033EFA85
:101125007B01E922F582E43403F583E0FE74C92FDF
:10113500F582E43403F5832278A77C037D017E00E4
:101145007F0302088A9003EFE025E024DBF582E4C3
:10115500340322E0FEA3E0FF7C007D0602092A3568
:10116500F0C8E9C8FC7D01229003EFE075F006A404
:1011750024CFF9740335F0FA229003EFE0FF24CD74
:10118500F582E43403F58322E02401FFE433FE7C99
:10119500007D0302093C24CBF582E43403F5832268
:1011A50074E52FF582E43403F5832225E024DCF58C
:0511B50082E434032276
:10000E001210A524EEF582E43401F583E0D39401B9
:05001E00400122D32285
:1026B2007BFF7A29794212113D7B017A0379F61266
:1026C200113D9003F674FFF0A3F0A3F07B017A03AF
:0226D20079A7E6
:0126D40022E3
:0F28D2001210A56F7002D3227F031220F6C322CB
:102665009003E2E024FFF09003E1E034FFF0D3A310
:10267500E094009003E1E0648094804002D322E47A
:082685009003E1F0A3F0C32271
:1018FF0012117EE06401600A74CB2F121129E06E81
:10190F00603712116D7B01E024C9121135E075F0BB
:10191F0002A429F9EA35F0FA78A77C037D011210A9
:10192F00E59003EFE0FB24C912113512118D74C934
:10193F002B121135EDF00219939003EFE0FF121601
:10194F00D678A77C037D011210E512116DE01211FC
:10195F009BE075F002A429F9EA1211647B017A0366
:10196F0079A71210E59003EFE0FB12119B12118D76
:10197F0074CB2B12119DEDF09003EFE0FF24CB12EF
:0A198F001129EEF07B017A0379A71D
:01199900222B
:101AC400EFB401071210A564086036EFB4080712DA
:101AD40010A56401602BEFB401071210A564076020
:101AE40020EFB407071210A564016015EFB40407D2
:101AF4001210A56407600AEFB407091210A5B40414
:101B0400037F0122EFB401071210A564066036EFCB
:101B1400B406071210A56401602BEFB4010712107C
:101B2400A564026020EFB402071210A564016015D9
:101B3400EFB403071210A56404600AEFB404091299
:101B440010A5B403037F00227F021220F67FFF2238
:0C2915001211A5E0B40203C38001D3221C
:05242F009003ADEFF089
:10243400122560EF9003ADB4020EE075F009A424F8
:102444009AF582E43401800CE075F009A42499F52E
:1024540082E43401F583E09003AEF09003AEE0FF34
:012464002255
:10268D0074EE2FF582E43401F583E0701612242FD9
:10269D00EF600C24F8F582E43401F583E07002C399
:0426AD0022D322D33F
:0126B1002206
:051ED6009003A7EFF0EE
:101EDB0012268D40169003A7E0FF122915400C9097
:101EEB0003A7E0FFD203122891801D12114AF5833C
:101EFB00E0540E6003B40602C3229003A7E0FF90E8
:101F0B0001FCE06F7002C3229003A7E0FF12242FA5
:101F1B009003A8EFF0602B9003AC74FFF09003A933
:101F2B00F09003ABF09003A7E0FF121AC49003A844
:101F3B00E025E02F9003AAF07A0379A91210C212C0
:031F4B002858D340
:011F4E002270
:102891003003079003EFE0FE80027E021211A5EEE5
:0228A100F02223
:102560001210A5FE75F009A42495F582E43401F556
:1025700083E06F6012EE75F009A42496F582E434CE
:0D25800001F583E06F70037F02227F0022CF
:1028580078F27C037D017B017A0379AD7E007F04E9
:0328680002088AD9
:0320F600CDEFCD5E
:1020F9009003EFE0FEC454F04F9003ADF09003DF7E
:10210900E09003AEF09003E0E09003AFF09001FCA3
:10211900E09003B0F09001FDE09003B1F0EF24FCF2
:10212900600D240424F85002801312114A8007908C
:1021390003EFE01211B0F583E09003B2F07B017A6E
:082149000379ADE4FF021CE480
:052095009003A7EFF02D
:10209A0012114AF583E0540E24FE602624FE6034B1
:1020AA0024FE60182406703E9003AB74FFF0900380
:1020BA00AA121101440C1210B41228581210ECE49E
:1020CA00F0221210FA44081210B41228581210EC16
:1020DA007403F0221210FA44041210B4122858128F
:0B20EA0010EC7404F022E4FF1220F65A
:0120F50022C8
:10184A00E490039CF0A3F090039CF0A3F090039C17
:10185A00E0FEA3E0FF24CDF58274033EF583E4F0B5
:10186A0074DF2FF58274033EF5837405F0EF25E0EB
:10187A00FFEE33FE74DB2FF58274033EF583E4F04A
:10188A0074DC2FF58274033EF583E4F012111DC057
:10189A00E090039C12115874CF2FF974033E121171
:1018AA0066D0E0F91210E5121110C0E01211587456
:1018BA00D12FF974033E121166D0E0F91210E51225
:1018CA001110C0E012115874D32FF974033E12118B
:1018DA0066D0E0F91210E590039DE004F0700690DE
:1018EA00039CE004F090039CE07004A3E0640260AF
:0418FA000302185776
:0118FE0022C7
:10038E00789C7C037A2979451210E1789E7C037A59
:10039E002979471210E178A47C037D017BFF7A292D
:1003AE0079491211431226B278A47C03121141909E
:1003BE0003A5E0C41354019003F0F0E49003EFF0B2
:1003CE009003F1E054F02410FFF09003EFE0FE33C1
:1003DE00333354F8FD74DF2E1210F2E0FE2D4F90E1
:1003EE0003F1F0EE70030204AA14700302051A144E
:1003FE00700302052E1470030205411470030205EA
:10040E005E146003020595EE4D9003F1F09003EF3C
:10041E00E0FF1210D6FE749C2FF582E43403F583B0
:10042E00EEF01218FFE9C0E09003EFE075F002A4C1
:10043E0024DBF97403121164D0E0F91210E5900375
:10044E00EFE0FF1211B0F583E0FE749E2FF582E40B
:10045E003403F583EE1210D1FF121ED6500302059F
:10046E00377F041220F69003A274FFF0A3F09003DE
:10047E00A11210D1FF1225609003EFE04F9003A060
:10048E00F078AD7C037D017B017A0379A01210CA4E
:10049E001228581210EC7402F002059A1210D2FFB4
:1004AE001228D2500B9003E4E0700512000E501685
:1004BE001210D2FF1228D240269003E3E070209053
:1004CE0003F0E0B401199003E3E070037402F07FCF
:1004DE00051220F612117E7401F074DF2F80389011
:1004EE0003EFE0249CF582E43403F583E0FFC203BE
:1004FE001228919003E4E0B40104E4F08006900326
:10050E00E47402F09003EFE024DF800B12266540C6
:10051E007B9003EFE024DF1210F27405F002059ACF
:10052E001210D2FF121ED650631210D2FF12209557
:10053E0002059A1210D2FF1228D25050E49003E313
:10054E00F09003EFE0249C1205B4E4F07F068039AE
:10055E001210D2FF1228D250339003EFE0FD12108A
:10056E00D6FE25E0049003A2F0A374FFF09003A141
:10057E00F09003A0F09003E37401F0749C2D12052B
:10058E00B4E4F07F078002E4FF1220F69003F1E05E
:10059E00FDE4FF1225329003EFE004F0E0C3940275
:0505AE0050030203CE22
:1005B30022F582E43403F583E0FFC203122891900D
:1005C30003E47401F09003EFE024CDF582E43403F7
:0305D300F583228B
:03000300D2B42252
:0A294C00C2B412000612290980FE31
:1003150041043100410432004104330041043400FA
:10032500410435004104360041043D0541043F01C7
:04033500410440013E
:1022E000900439E0A3FFE06FFF900438E06F9004A2
:1022F00037F022900409E05402C4333354C02290D2
:1023000004397401F0229004367404F090043A7495
:0A23100052F0222480900438F022DD
:0300230002258D26
:10258D00C0E0C083C082C0D030981790042DE5996B
:10259D00F0E0B401097599009004347401F0C2980B
:0D25AD008002C299D0D0D082D083D0E0321D
:100F8A0090043EE0700B90040974FFF0A3F0A3F004
:100F9A0022900434E0FF7018900431E004F09004C9
:100FAA003DE0FE900431E06E60030210A402109E40
:100FBA00E4900431F020B50302108CE4900435F07B
:090FCA00A3E07056EF64017051C0
:100FD30090039C74FFF0900409E0F46007E490032D
:100FE3009CF0801C90040AE0F4600890039C740158
:100FF300F0800D90040BE0F4600690039C7402F003
:1010030090039CE014601214601424037003021014
:10101300A414700D121F4F8008120026800312249F
:011023006567
:10102400900436E0FFD39400401D30B5F374362F9E
:10103400F582E43404F583E0F5993099FD900436A3
:10104400E014F0C29980D9E4900434F0900409E0EB
:10105400F46002801190040AE0F4600E900440E011
:10106400B4010790040A74FFF02290040BE0F460CA
:101074002F90043FE0B40103E4F02290040B74FFCA
:10108400F090043F7401F022900435E004F09004E1
:101094003DE0FF900435E06F700690040C7404F09A
:0110A4002229
:101F4F009004367406F090043C74E4F090043B74F3
:101F5F0013F0E490043AF0900409E0FF20E005123A
:101F6F0022FF800AEF30E0069004397402F0EF137D
:101F7F00135403FF70051222F3801EEFB4010712F2
:101F8F0022F344088013EF900409B402071222F6DB
:101F9F00441F80051222F644DD900438F090043B74
:101FAF00E0FFA3E06FFF90043AE06F900439122234
:011FBF00E53C
:011FC00022FE
:1000260012230690040AE0C313FEBE0109E49004FD
:1000360039F07D038014BE02071222FFE4FD800A18
:10004600BE0307E4900439F07D02CFEDCFEF25E043
:10005600FD900440E06401701790040AE030E0056A
:10006600ED44018001ED122313E4900440F0801862
:1000760090040AE030E005ED44088003ED440912DF
:0B00860023139004407401F01222E0EC
:01009100224C
:1024650012230690040BE0C313FEBE01071222FFE0
:102475007D028007BE02041222FFFDCFEDCFEF25BE
:10248500E0FD90043FE0B40103ED8003ED44081244
:0524950023131222E0F8
:01249A00221F
:10275900D2B590043E7401F0E490040CF0D2DFC2CB
:102769009FD29E75BA0375AADFD29CD299D2AC22A8
:1003390060200356000000000000000000000000DB
:1003490000000000000000000000000000000000A4
:10035900000000006020037600000000000000009B
:100369000000000000000000000000000000000084
:0803790000000000000000007C
:10250000900397E025E0FF900396E033FE74762F6A
:10251000F58274033EF58322E0FCA3E0FD74562FA0
:10252000F58274033EF58322900396E0FEA3E0FF5C
:02253000C322C4
:1027E900C2F8C2F9C2FAD2FBE4900398F0A3F090C0
:0827F90003FA74FFF0A3F022C3
:102801009003FAE0B4FF0FA3E0B4FF0AE49003FAE7
:07281100F0A3F012203222B7
:10203200D2F87F03122921D2FA122088D2F97F071F
:10204200122921C2F97F07122921E4FFFE1223C1BE
:10205200C2F87F09122921900396E4F0A304F0123A
:1020620025289410EE648094805018D2FA1223C16D
:10207200122088900397E004F070E4900396E00445
:10208200F080DC0217927F09122921C2FA7F09121D
:03209200292122DF
:1023C100CDEFCDCCEECCA2FBE433FBED25E0FFEC71
:1023D10012250BE4F0A3EBF012250DC083C082E0BF
:1023E100FEA3E07807C333CE33CED8F9FFD082D035
:0723F10083EEF0A3EFF022E0
:10179200900396E4F0A3740FF0122528EE6480946F
:1017A200805003021849EF25E0FFEE12250B1225A7
:1017B20018E0FEA3E06D7002EE6C7007122500E4E3
:1017C200F0A3F0900396E0FCA3E0FDC39408EC6460
:1017D2008094805025900396E0FAA3E0FB25E0FF79
:1017E200EA12250BA3E0FF9003FAE02FF0D3EB946B
:1017F20000EA648094804033802EC3ED9410EC6440
:101802008094805026900396E0FCA3E0FD25E0FF43
:10181200EC12250BA3E0FF9003FBE02FF0D3ED9435
:1018220008EC648094804003E013F0122500122536
:1018320018ECF0A3EDF0900397E024FFF0900396EC
:08184200E034FFF002179B22C5
:0B292100EFD394004004001F80F6225A
:0B293700E02441F582E43404F5832223
:1025E600E4FF7E0690044174FFF0A3DEFCC28C5328
:1025F60089F75389FB5389FD438901758ACA758C0E
:0B2606007D43A90243B902D2A9D28C87
:0126110022A6
:0B292C00C28C758ACA758C7DD28C228B
:102532009003A8EDF09003A7EFF0D39406500E128B
:102542002937E0FF9003A8E0FEEF6E700312294CDA
:0E2552009003A8E0FF9003A7122937EFF022B4
:03000600C28C2287
:03000B000221A629
:1021A600C0E0C0F0C083C082C0D0E8C0E0E9C0E0B3
:1021B600EAC0E0EBC0E0ECC0E0EDC0E0EEC0E0EF6E
:1021C600C0E012294CD0E0FFD0E0FED0E0FDD0E028
:1021D600FCD0E0FBD0E0FAD0E0F9D0E0F8D0D0D0E7
:0821E60082D083D0F0D0E0327A
:0C038100410448014104490141044A00C4
:0E28EF00900448E024FE22900449E024FE22DA
:1026D5001228EF600E1460122402701490044874DE
:1026E50002F0229004487403F0229004487401F02B
:0126F50022C2
:1026F6001228EF600E1460122402701490044874BD
:1027060003F0229004487401F0229004487402F009
:0127160022A0
:102717001228F6600E146012240270149004497493
:1027270002F0229004497403F0229004497401F0E6
:01273700227F
:102738001228F6600E146012240270149004497472
:1027480003F0229004497401F0229004497402F0C5
:01275800225E
:10282E00900405E0B4FF0CA3E0B4FF07A3E0B4FFEF
:05283E0002C322D322B9
:1027970030021A90044BE0B4FF10A3E0B4FF0BA380
:0E27A700E0B4FF0690040474FFF012235222E7
:10235200900401E0F4702AA3E0B4FF25A3E0B4FFE7
:102362002090044BE0900401F090044CE0900402B1
:10237200F090044DE0900403F0E4A3F090044AF0DE
:082382002290044A740AF022C3
:03009300022151F6
:10215100C0E0C0F0C083C082C0D0E8C0E0E9C0E008
:10216100EAC0E0EBC0E0ECC0E0EDC0E0EEC0E0EFC3
:10217100C0E0E5AB30E0031223F8E5AB30E1031238
:10218100286BD0E0FFD0E0FED0E0FDD0E0FCD0E055
:10219100FBD0E0FAD0E0F9D0E0F8D0D0D082D08303
:0521A100D0F0D0E03297
:10286B001226F6122738E5AB30E00475AB0122E4F3
:03287B00F5AB2298
:1023F8001228F6600C1460142402701E90044B809E
:102408000390044CE595F0122717800E90044DE5D3
:1024180095F0122717D202122797E5AB30E1047521
:07242800AB0222E4F5AB2238
:10222D001228EF60111460172402703012282E50FE
:10223D002B9004058003900406E0F5940226D590BA
:10224D000407E0F5941226D5900448E0B4010D90F2
:0D225D00040574FFF0A3F0A3F0E4A3F02249
:10287E0090044AE024F66004240A800302235212D4
:03288E00222D22D6
:102843007593EAD2AF539AFB75AC03439A0453A929
:052853000443B904225A
:03000000021B548C
:0C1B5400787FE4F6D8FD758120021B9B11
:1007BA00E709F608DFFA8046E709F208DFFA803E21
:1007CA0088828C83E709F0A3DFFA8032E309F6080E
:1007DA00DFFA8078E309F208DFFA807088828C8376
:1007EA00E309F0A3DFFA806489828A83E0A3F6082A
:1007FA00DFFA805889828A83E0A3F208DFFA804C04
:10080A0080D280FA80C680D4806980F280338010DA
:10081A0080A680EA809A80A880DA80E280CA803343
:10082A0089828A83ECFAE493A3C8C582C8CCC583BB
:10083A00CCF0A3C8C582C8CCC583CCDFE9DEE7808B
:10084A000D89828A83E493A3F608DFF9ECFAA9F00A
:10085A00EDFB2289828A83ECFAE0A3C8C582C8CC60
:10086A00C583CCF0A3C8C582C8CCC583CCDFEADE79
:10087A00E880DB89828A83E493A3F208DFF980CCDB
:10088A0088F0EF60010E4E60C388F0ED2402B404D4
:10089A000050B9F582EB2402B4040050AF2323457B
:0608AA00822390080A738E
:1008B000BB010689828A83E0225002E722BBFE0246
:0908C000E32289828A83E4932279
:1008C900BB010CE58229F582E5833AF583E02250E4
:1008D90006E92582F8E622BBFE06E92582F8E2222E
:0D08E900E58229F582E5833AF583E4932248
:1008F600BB010689828A83F0225002F722BBFE01E1
:02090600F322DA
:10090800F8BB010DE58229F582E5833AF583E8F025
:10091800225006E92582C8F622BBFE05E92582C8D1
:02092800F222B9
:10092A00EF8DF0A4A8F0CF8CF0A428CE8DF0A42EE1
:02093A00FE229B
:10093C00BC000BBE0029EF8DF084FFADF022E4CC9F
:10094C00F875F008EF2FFFEE33FEEC33FCEE9DEC68
:10095C00984005FCEE9DFE0FD5F0E9E4CEFD22EDAE
:10096C00F8F5F0EE8420D21CFEADF075F008EF2FF8
:10097C00FFED33FD4007985006D5F0F222C398FDE9
:05098C000FD5F0EA2286
:101B6000021BE0E493A3F8E493A34003F68001F2A0
:101B700008DFF48029E493A3F85407240CC8C33386
:101B8000C4540F4420C8834004F456800146F6DF55
:101B9000E4800B0102040810204080900096E47E4F
:101BA000019360BCA3FF543F30E509541FFEE4934A
:101BB000A360010ECF54C025E060A840B8E493A311
:101BC000FAE493A3F8E493A3C8C582C8CAC583CA3C
:101BD000F0A3C8C582C8CAC583CADFE9DEE780BEF4
:01038D00006F
:00000001FF
